:040000000BEF00F012
:100008005082FACF28F0FBCF29F0BEED05F09DEF26
:0200180007F0EF
:1006000000E721CB6B2D6EEE23EF6F000001726FC0
:100610004DB430D0030E00017219D8A40AD0104A8C
:10062000112A10041110D8B404D0000E116E000E5F
:10063000106E050E00017219D8A407D04DB402D077
:100640004D8401D04D94030E4E6E10501110D8A45D
:1006500008D0E50E1F6E080E206E6E0E216ECC0EB9
:1006600007D0A80E1F6E080E206E800E216EE90EB8
:10067000226E52D110501110D8A448D02350010D31
:10068000010EF324F66E060EF420F76E0800F5CF87
:100690001FF02450010D010EF324F66E060EF42017
:1006A000F76E0800F5CF20F02550010D010EF32460
:1006B000F66E060EF420F76E0800F5CF21F02650F6
:1006C000010D010EF324F66E060EF420F76E0800FD
:1006D000F5CF22F0060E00017219D8A462D04E5058
:1006E000010D230EF324D96E000EF420DA6EDFCF55
:1006F0006DF0010EDF26080E00016D6552D04E50E0
:10070000010D230EF324D96E000E47D01B50010DAE
:10071000010EF324F66E060EF420F76E0800F5CFF6
:100720001FF01C50010D010EF324F66E060EF4208E
:10073000F76E0800F5CF20F01D50010D010EF324D7
:10074000F66E060EF420F76E0800F5CF21F01E506D
:10075000010D010EF324F66E060EF420F76E08006C
:10076000F5CF22F0060E00017219D8A41AD04E500F
:10077000010D1B0EF324D96E000EF420DA6EDFCFCC
:100780006DF0010EDF26080E00016D650AD04E5097
:10079000010D1B0EF324D96E000EF420DA6E000E4C
:1007A000DF6E4E50010D1F0EF324D96E000EF420A3
:1007B000DA6E000EDB88050E00017219D8A41AD07B
:1007C0004E50010D1F0EF324D96E000EF420DA6E88
:1007D000EF0EDF164E50D8B404D0040E4E6001D098
:1007E0004E061A2A040E1A18D8A404D0030E4E6E10
:1007F000000E1A6E030E00017219D8A48DD010508D
:100800001110D8A445D0230E3C6E000E3D6EE3ECD3
:1008100006F03CC073F03DC074F073C043F074C088
:1008200044F0550E456E6BEC06F0600E366E000E11
:10083000376E48EC05F08480130E0001716F880E4E
:10084000706F00017007D8A0710700017029F9E1ED
:1008500000017129D8A4F5D78490000E0001716FB2
:10086000000E706F000171514CE1040E0001705DCB
:10087000D8B047D0230E00017025D96E000E0001BC
:100880007121DA6E000EDF6E0001704B712BEAD71A
:100890001B0E3C6E000E3D6EE3EC06F03CC073F0A8
:1008A0003DC074F00001745100016F6F6FC039F0EA
:1008B000010E80EC08F073C06FF06FC039F0000ECD
:1008C00080EC08F01F0E6F166F8E73C06DF074C051
:1008D0006EF0050ED89000016D376E37E82EFAD70E
:1008E0006DC073F06EC074F0000174510F01006FA1
:1008F00073C001FF1F0E6F166F50000E116E000EB9
:10090000106E4D904D944A504B10D8A402D0010E59
:1009100001D0000E4A6E4B6A4AC04AF04BC04BF001
:1009200012000001736FE1EC07F00009D8B40AD09F
:100930004D8007C014F0156A14504A6E0650146EAC
:100940004AC015F04DA09BD0000E0001726F030E3F
:10095000716F14C06FF015C070F06FC036F070C0CA
:1009600037F0000E396E0A0E386E02EC08F036C011
:100970006DF037C06EF0010E00016D25F66E060EAB
:100980006E21F76E1F0E00017125D96E000E000159
:100990007221DA6E0800F5CFDFFF6FC036F070C04D
:1009A00037F0000E396E0A0E386E74EC07F036C060
:1009B0006FF037C070F000017107D8A07207000116
:1009C0007129CBE100017229D8A4C7D7165017109E
:1009D000D8A405D0000E176E050E166E0FD0070EA8
:1009E00000017319D8A404D0000E176E050E166E00
:1009F000070E0001736F1606D8A01706060E000139
:100A00007319D8A409D00F0E141804E1270E151875
:100A1000D8B402D0144A152A050E00017319D8A4BF
:100A200007D014501510D8B403D01406D8A015065A
:100A3000030E00017319D8A4120014C043F015C0AE
:100A400044F0410E456E6BEC06F0600E366E000E03
:100A5000376E48EC05F08480130E0001726F880E2B
:100A6000716F00017107D8A0720700017129F9E1C7
:100A700000017229D8A4F5D784904D901200000E81
:100A80001F6E000E206E000E216E000E226E1200F0
:100A900036C0D9FF37C0DAFFDF500F01436F20EEB9
:100AA00001F03650D9263750DA22DF500F01446F5B
:100AB00020EE02F03650D9263750DA22DF500F01EF
:100AC000416F20EE03F03650D9263750DA22DF503E
:100AD0000F01426F20EE04F03650D9263750DA224B
:100AE000DF500F01456F20EE05F03650D926375004
:100AF000DA22DF500F01466F20EE06F03650D9267D
:100B00003750DA22DF500F01476F20EE07F03650E2
:100B1000D9263750DA22DF500F01486F20EE08F057
:100B20003650D9263750DA22DF500F01496F20EEB8
:100B300009F03650D9263750DA22DF500F014A6FBC
:100B400020EE0AF03650D9263750DA22DF500F0156
:100B50004B6F20EE0BF03650D9263750DA22DF509B
:100B60000F014C6F20EE0CF03650D9263750DA22A8
:100B7000DF500F014D6F0F01408712000600E9CFD3
:100B80002AF0EACF2BF0E1CF2CF0E2CF2DF0D9CF35
:100B90002EF0DACF2FF0F3CF30F0F4CF31F0F6CFE4
:100BA00032F0F7CF33F0F8CF34F0F5CF35F0F2A4D0
:100BB00029D0080ED624D66E000ED720D76E4DA0B1
:100BC0001BD00E4A0F2A110E0E181BE1270E0F180C
:100BD000D8A417D0000E0F6E000E0E6E81BE03D08B
:100BE000276A272A01D0276A2732273281502718FF
:100BF0007F0B2718816E05D0000E0F6E000E0E6E53
:100C0000819EF29435C0F5FF34C0F8FF33C0F7FF82
:100C100032C0F6FF31C0F4FF30C0F3FF2FC0DAFF5F
:100C20002EC0D9FF2DC0E2FF2CC0E1FF2BC0EAFF90
:100C30002AC0E9FF29C0FBFF28C0FAFF509211002B
:100C4000A9EC08F0C3EC08F0BFEC07F09EEC08F04C
:100C500096908490939E819E010E41EC08F0456E23
:100C60004550476E466A000E41EC08F0486E485009
:100C70004610496E47504A6E4A5004E1800E495C66
:100C8000D8A004D0000E4A6E0A0E496E1B0E3D6EAF
:100C9000000E3E6E49C03FF04AC040F017EC07F02E
:100CA0001F0E6F166F8E49C045F04AC046F0050E04
:100CB000D89045364636E82EFBD745C049F046C0A9
:100CC0004AF04A500F01006F49C001FF1F0E6F1616
:100CD0006F50F28E1200000E0001606F000E0001D6
:100CE000616F1B0E3C6E000E3D6EE3EC06F03CC0E7
:100CF00048F03DC049F048C046F049C047F0050EF5
:100D0000D89046364736E82EFBD746C048F047C055
:100D100049F049500001626F48C063F0030E0001C2
:100D2000646F45C065F043C066F044500001676FD2
:100D3000000E0001686F000E0001696F000E0001D7
:100D40006A6F000E00016B6F000E00016C6F1200E5
:100D5000000E3A6E030E3A6401D012003A50010DB3
:100D6000F3503624D96EF4503720DA6EDF50836E9C
:100D70003AC038F0010E396E382A02D0D890393690
:100D8000382EFCD78050F00B3910806E090E3C6E67
:100D9000C40E3B6E3B06D8A03C063B28FBE13C283A
:100DA000D8A4F8D78050F00B806E000E3C6EFA0E7F
:100DB0003B6E3B06D8A03C063B28FBE13C28D8A470
:100DC000F8D73A2AC7D7000E406E000E3F6E000ECD
:100DD000426E000E416E42BE06D0425023E1040E28
:100DE000415CD8B01FD03FC036F040C037F0000E95
:100DF000396E0A0E386E6DEC08F041503C24D96E05
:100E000042503D20DA6EDF503E6E3E5036243F6E3B
:100E1000000E3720406E414A422A42BEE4D742507B
:100E200001E1DDD73FC03CF040C03DF01200000EB4
:100E3000446E030E436E3FC036F040C037F0000EE4
:100E4000396E0A0E386E02EC08F036C041F037C039
:100E500042F03FC036F040C037F0000E396E0A0E47
:100E6000386E74EC07F036C03FF037C040F04350A6
:100E70003D24D96E44503E20DA6E41C0DFFF430668
:100E8000D8A044064328D7E14428D8B41200D3D7C9
:100E900018C036F019C037F058EC08F036C018F01A
:100EA00037C019F018041910D8A410D0010E23EC83
:100EB00008F04C6E18C04AF019C04BF04C5006ECCC
:100EC00003F04AC018F04BC019F007D0000E23EC15
:100ED00008F04C6E4C5091EC04F01F0E366E000E74
:100EE000376EA8EC06F01200000E3C6E000E3B6E52
:100EF00038503910D8B41CD0010E3A6E04D0D890B6
:100F0000383639363A2A39AEFAD7D8903B363C369D
:100F10003850365C39503758D8A005D03850365E36
:100F20003950375A3B80D890393238323A2EEDD783
:100F30003BC036F03CC037F0120000EE60F00D0E02
:100F4000EE6AE806FDE14D6A00EE01F0260EEE6A5B
:100F5000E806FDE1BC0EF66E110EF76E000EF86E9F
:100F60000900F5CF4EF00900F5CF4FF050905092A8
:100F7000000EF86E060EF76E0001BEEF08F09394B7
:100F800093861F0E6E166E8E800E6E18D8A4FCD738
:100F9000000E776EE10E706E1B0E716E030E726E98
:100FA000010E0D01D46F0F011A690F011B690F01AA
:100FB00018690F0119691F0E6F166F50000E606ED1
:100FC000120060AE1DD063CF01F064CF02F061CF9C
:100FD00003F062CF04F065CF05F066CF06F067CF6F
:100FE00007F068CF08F069CF09F06ACF0AF06BCF3D
:100FF0000BF06CCF0CF06DCF0DF0609E010E120067
:10100000000E120038503910D8B418D0010E3A6EC4
:1010100004D0D890383639363A2A39AEFAD7385013
:10102000365C39503758D8A004D03850365E395025
:10103000375AD890393238323A2EF1D736C036F096
:1010400037C037F01200366E3604D8A415D082505F
:10105000070B070AD8B408D04F50D8B405D0000EFB
:101060004F6E8250070B12008250070B070AD8A45C
:1010700006D0010E4F6E03D03650D8B4F2D7FF0E13
:101080001200376E000E386ECBEC08F0A00EB2ECFA
:1010900008F03750B2EC08F0CFEC08F0A10EB2EC3B
:1010A00008F0B8EC08F0386EC7EC08F038501200C1
:1010B00081B04DA20BD04D9236503710D8A402D03B
:1010C000010E01D0000E366E376A02D081A04D822B
:1010D00036C036F037C037F0120036503802F3CF42
:1010E0003AF0F4CF3BF036503902F3503B263750FC
:1010F0003802F3503B263AC036F03BC037F01200BE
:101100003A6ECBEC08F0A00EB2EC08F03A50B2EC1C
:1011100008F03950B2EC08F0C7EC08F0050E92EC7C
:1011200008F01200366E040E376EFA0E386E382E46
:10113000FED7372EFAD7362EF6D71200948694882B
:10114000280EC66E300EC86EC79CC78E9E96A1969E
:101150001200000E956E9250F00B926E8050F00BC4
:10116000806E1200366E36C0C9FFD7EC08F0120050
:10117000D3EC08F0DBEC08F0C950120020EC06F0CC
:1011800048EC07F0FDD794500709946E1200C5840F
:10119000D7EC08F01200C580D7EC08F01200C58229
:1011A000D7EC08F01200C586D7EC08F012009EA616
:0E11B000FED79E961200C58AC5881200030164
:020000040030CA
:08000000FF01191EFF8081FFC2
:00000001FF
